:020000040800F2
:1000000068DD01209D0300085D3300087F32000891
:1000100059330008EF0F0008B13800080000000055
:10002000000000000000000000000000A90200081D
:10003000F30F000800000000050300085F3300080C
:10004000C1030008C1030008C1030008C103000880
:10005000C1030008C1030008C1030008C103000870
:10006000C1030008C1030008C1030008C103000860
:10007000C1030008C1030008C1030008C103000850
:10008000C1030008C1030008C1030008C103000840
:10009000C1030008C1030008C1030008C103000830
:1000A000C1030008C1030008C1030008C103000820
:1000B000C1030008C103000889330008C103000818
:1000C000C1030008C1030008C1030008C103000800
:1000D000C1030008C1030008C1030008A1380008DB
:1000E000C1030008C1030008C1030008C1030008E0
:1000F000C1030008C1030008C1030008C1030008D0
:10010000C1030008C1030008C1030008C1030008BF
:10011000C1030008C1030008C1030008C1030008AF
:10012000C1030008C1030008C1030008C10300089F
:10013000C1030008AD100008C1030008C103000896
:10014000C1030008C1030008C1030008C10300087F
:10015000C1030008C1030008C1030008C10300086F
:10016000C1030008C1030008C1030008C10300085F
:10017000C1030008C1030008C1030008000000001B
:10018000C1030008C103000800F002F800F07CF889
:100190000AA090E8000C82448344AAF10107DA45E2
:1001A00001D100F071F8AFF2090EBAE80F0013F0B8
:1001B000010F18BFFB1A43F00103184708B00100F4
:1001C00028B001000A444FF0000C10F8013B13F076
:1001D000070408BF10F8014B1D1108BF10F8015BA0
:1001E000641E05D010F8016B641E01F8016BF9D193
:1001F00013F0080F1EBF10F8014BAD1C0C1B09D1EA
:100200006D1E58BF01F801CBFAD505E014F8016B5B
:1002100001F8016B6D1EF9D59142D6D370470000ED
:100220000023002400250026103A28BF78C1FBD8FF
:10023000520728BF30C148BF0B607047642900F0E7
:10024000F381752900F0F081782900F02982632973
:1002500000F00985732900F00E85002070471FB556
:100260001AF0E0FC9DE8030000F020FC00F02BFBFE
:1002700000F0FCFB0400002000211AF0BDFC401C33
:1002800060601FBD10B510BD00F02EFE1146FFF7D7
:10029000E6FF0AF015FD00F05AFE03B4FFF7F2FF87
:1002A00003BC03F04AFB00002C4B19680868B0E857
:1002B000F04F80F30988BFF36F8F4FF0000080F399
:1002C000118870470000000008480068006880F34B
:1002D00008884FF0000080F3148862B661B6BFF35F
:1002E0004F8FBFF36F8F00DF00BF00BF08ED00E04E
:1002F000DFF80C00016841F470010160704700BF35
:1003000088ED00E0EFF30980BFF36F8F134B1A689D
:100310001EF0100F08BF20ED108A20E9F04F10608A
:1003200009B44FF0500080F31188BFF34F8FBFF333
:100330006F8F19F045FA4FF0000080F3118809BC67
:1003400019680868B0E8F04F1EF0100F08BFB0EC55
:10035000108A80F30988BFF36F8F7047A4020020D2
:10036000EFF30580704700000B49D1F800C04A68E0
:100370005CF8043B1068184442F8040B8C4528BF15
:10038000A1F1DC0C8A4228BFA1F1DC02C1F800C057
:100390004A6020F000407047FCD801200C480168FA
:1003A00041F4700101600B4880470B480047FEE7AD
:1003B000FEE7FEE7FEE7FEE7FEE7FEE7FEE7FEE715
:1003C000FEE7000005480649044A064B7047000056
:1003D00088ED00E0753300088901000868D9012024
:1003E00068DD012068D901207047000010B500F0D9
:1003F0003DFB001D10BD00BF01A8010070B5064601
:1004000000F030FB056806F10B0020F00704B44251
:100410009CBF002070BD2B466A68BAB11068A0422C
:1004200010D304F1080188423CBF5068586007D3DC
:100430005168101941601168091B0160586014600F
:10044000101D70BD13465268002AE7D12146284688
:1004500000F018FB0028DED170BD53EA020C00F05A
:1004600069802DE9F04B4FF00006002B1FBFB3FA57
:1004700083F503FA05F424FA05F65E4012BF16432D
:10048000B2FA82F502FA05F4C5F120051EBF22FA80
:1004900005FC44EA0C04203556EA044C4FEA1444A7
:1004A00018BF641C4FF000084FF00009904271EB38
:1004B000030C39D3002919BFB1FA81F701FA07F605
:1004C000B0FA80F700FA07F6C7F120071EBF20FA3E
:1004D00007FC46EA0C062037B6FBF4FCA7EB050741
:1004E000103F07F01F0BCBF120060CFA0BFB2CFA88
:1004F00006F644BFB3460026202FA4BF5E464FF049
:10050000000B5BEA060C08BF4FF0010B19EB0B095F
:10051000ABFB027C48EB0608C01B06FB02CC0BFBC6
:1005200003CC71EB0C01C1E70B460246414648463D
:10053000BDE8F08B13B54FF000004FF00001AFF3B2
:100540000080BDE81C4070470FB4044910B503AAF1
:10055000029800F095FB10BC5DF814FB140000201D
:100560000FB41CB5074B06AA7B446946009005985A
:1005700000F057FB0020694600F066FB1CBC5DF8EC
:1005800014FB0000DD06000070B5044685690068B4
:10059000C10601D5302600E02026C00707D070BD77
:1005A000D4E9012130469047206A401C20626D1E2C
:1005B000F6D570BD70B5044685690078C00707D1CF
:1005C00070BDD4E9012120209047206A401C2062A0
:1005D0006D1EF6D570BD70B50C460546012A05D0D6
:1005E0002878800600D5EA69002302E0012305E0AF
:1005F0005B1C934202D2E05C0028F9D1A869E6189E
:10060000C01AA861286A184428622846FFF7BCFF70
:1006100004E0D5E9012114F8010B9047B442F8D366
:100620002846FFF7C7FF70BD2DE9F04106460024BC
:1006300010687529314616A510D0AFF30080002848
:1006400002DA404213A507E031688A0701D512A5F6
:1006500002E0490704D511A5012401E0AFF30080B1
:1006600000210A2206F1240709E0B0FBF2FCB0FBEE
:10067000F2F302FB1C00303078541846491C002865
:10068000F3D123462A463046BDE8F04100F06BBA6C
:10069000000000002D0000002B00000020000000E2
:1006A00070B504460D4621461068AFF300802188DE
:1006B000090502D50F4A7A4402E00E4A7A440E3206
:1006C000002104F1240305E000F00F060009965D07
:1006D0005E54491C0028F7D120780023000704D578
:1006E000702D02D009B1022311322046BDE87040BE
:1006F00000F039BA8EA701002DE9F05F8946044663
:100700004FF0000ADFF874B1FB44C0F820A0204687
:10071000E1688847002874D0252806D0D4E9012153
:100720009047206A401C2062F1E700265F46204681
:10073000E16888472028054607DB312D05D2781966
:1007400010F8200C08B10643F1E7B00701D526F0F8
:100750000406C4F81CA00027C4F818A02A2D09D04C
:10076000284603F0E3F838B304EB8708303DC8F8B7
:10077000185019E059F8041B204604EB87029161D8
:10078000E1688847012F054618D1E069002820DA82
:1007900026F020061DE0D8F8180000EB800005EBDD
:1007A00040003038C8F818002046E1688847054600
:1007B00003F0BCF80028EED1012F0AD02E2D08D16D
:1007C0002046E16888477F1C0546022F46F0200638
:1007D000C4DBA069002803DA404246F00106A061AC
:1007E000F00701D026F010066C2D0BD0682D09D033
:1007F0004C2D39D06A2D35D0742D35D07A2D33D08B
:1008000016E038E0E1682F4620468847B8420546A2
:1008100009D16C2F26D04FF48060E1680643204652
:100820008847054604E06C2F1AD04FF480700643C9
:100830000DB3A5F14100192802D8203546F4006611
:100840004A462946204626604E46FFF7F7FC80B10F
:1008500001280BD0F61D26F0070000F1080956E725
:100860004020E4E78020D8E70020D6E706F104091D
:100870004DE7284652E7206ABDE8F09F64A70100D3
:1008800070B5064600F0F6F80468054630460A22C0
:10089000002100F007FA2C6070BD00000B4910B574
:1008A000A1F17C020A4CC2E93712372106E000EBC5
:1008B000104342F82130074B00FB03400B1EA1F10F
:1008C0000101F4DC10BD0120E8E700009CD8012004
:1008D000E119D666CD0D010040EA010310B59B0772
:1008E0000FD1042A0DD310C808C9121F9C42F8D09A
:1008F00020BA19BA884201D9012010BD4FF0FF304B
:1009000010BD1AB1D30703D0521C07E0002010BD60
:1009100010F8013B11F8014B1B1B07D110F8013BEC
:1009200011F8014B1B1B01D1921EF1D1184610BDCD
:10093000032A40F2308010F0030C00F0158011F80B
:10094000013BBCF1020F624498BF11F801CB00F8E3
:10095000013B38BF11F8013BA2F1040298BF00F837
:1009600001CB38BF00F8013B11F0030300F0D28146
:10097000083AC0F0088051F8043B083A51F804CB1B
:10098000A0E80810F5E7121D5CBF51F8043B40F8E1
:10099000043BAFF30080D20724BF11F8013B11F8EC
:1009A00001CB48BF11F8012B24BF00F8013B00F830
:1009B00001CB48BF00F8012B704702F0FF0343EA68
:1009C000032242EA024200F002B84FF0000204297A
:1009D000C0F0128010F0030C00F01B80CCF1040C6E
:1009E000BCF1020F18BF00F8012BA8BF20F8022BA2
:1009F000A1EB0C0100F00DB85FEAC17C24BF00F848
:100A0000012B00F8012B48BF00F8012B70474FF075
:100A1000000200B5134694469646203922BFA0E84E
:100A20000C50A0E80C50B1F12001BFF4F7AF09075A
:100A300028BFA0E80C5048BF0CC05DF804EB89004B
:100A400028BF40F8042B08BF704748BF20F8022B8E
:100A500011F0804F18BF00F8012B704770477047A6
:100A600070477047004870470CD901200048704714
:100A700024D901200048704704D9012070477047ED
:100A80007047704738B504460A4600206946AFF300
:100A90000080002808BF38BD02460099204600F0BB
:100AA0006FF9012038BD012000F0D7B9F8B5AFF3D8
:100AB0000080054600200C46102000BF0646A819FD
:100AC000A0420DD9324669460020AFF300800700EE
:100AD00008BF00F0C2F90098A04218BF0546C4192B
:100AE000FFF7C0FF05600746F01D20F0070046191C
:100AF000284600F00AF8B44208BFF8BDA21B3146F0
:100B00003868BDE8F84000F03BB900210160C0E959
:100B1000011070471020704770B50446051FFFF79D
:100B2000A1FF0068002C14BF446870BD002C18BFE2
:100B3000AC423CBF20466468F8D301680A18AA4258
:100B400018BF456003D12A68054611440160286832
:100B50004119A1421CBF6C6070BD61686960216869
:100B60000844286070BD2DE9F0470D46994692462D
:100B7000044600F124080168880604D5E06921F0E4
:100B80001001216000E00120A84201DD471B00E0C8
:100B90000027A1697A1902EB0900081AA0612078E0
:100BA000C00602D42046FFF7EFFC002608E0D4E997
:100BB00001211AF806009047206A401C761C20622A
:100BC0004E45F4DB2078C0060AD52046FFF7DCFC52
:100BD00006E0D4E9012130209047206A401C2062C1
:100BE000381EA7F10107F4DC07E0D4E9012118F869
:100BF00005009047206A401C2062281EA5F10105CF
:100C0000F3DC2046FFF7D6FC2078000602D5022050
:100C1000BDE8F0870120FBE701694A1C0261087802
:100C2000704700B58FB0CDE901310021059105492C
:100C30007944CDE9031011466846FFF75DFD0FB01A
:100C400000BD0000E5FFFFFF0A6802F8010B0A6023
:100C5000704710B5436913B1AFF3008001E0FFF7AF
:100C6000BAFC012010BD127800F124010A700022A4
:100C70004A700122EDE711684FF0FF32E9E700000A
:100C8000074B70B50D467B44FFF7CBFF0446284663
:100C900000F0DFF810B14FF0FF3070BD204670BD9E
:100CA000A34600002DE9F04791460F4680460446D2
:100CB000002614F8015B2DB1FFF798FB0068405D3A
:100CC000C007F6D12B2D02D02D2D18D0641E4A4618
:100CD0003946204600F06EF827B13968A14201D1AB
:100CE000C7F800804FF0020471050BD54042002880
:100CF00003DDFFF7BFFE0460A007BDE8F08746F400
:100D00008066E4E70028F8DAFFF7B4FE04606FF0CD
:100D10000040F2E710B5203AC0F00B80B1E818505F
:100D2000203AA0E81850B1E81850A0E81850BFF4D5
:100D3000F5AF5FEA027C24BFB1E81850A0E8185074
:100D400044BF18C918C0BDE810405FEA827C24BFC8
:100D500051F8043B40F8043B08BF7047D20728BF56
:100D600031F8023B48BF11F8012B28BF20F8023BA5
:100D700048BF00F8012B70470048704704D9012094
:100D8000034640688C46002818BF88423CBF034693
:100D90004068F8D318681844884207D00CF1030063
:100DA00020F00700001D411A521A0146081D0A6072
:100DB000FFF7B2BE2DE9F05F824615468B4600274D
:100DC0000AF10104B9460078302801D09DB113E042
:100DD00014F8010B0127782803D0582801D045B119
:100DE0000AE00DB1102D07D1002714F8010B1025D2
:100DF00002E0082500E00A250026B0460EE005FBCB
:100E0000080005FB06F101271FFA80F801EB1046E8
:100E1000B6F5803F00D3B94614F8010B294600F01F
:100E200088F80028EBDABBF1000F05D00FB1641E83
:100E300000E05446CBF80040B9F1000F06D0FFF7B0
:100E400019FE02210160C81EBDE8F09F48EA064075
:100E5000FAE7007B00F08000704710B500F086F8DC
:100E6000BDE8104000F07CB84FF0013C50F8042B76
:100E700051F8043B9A4221D1A2EB0C03934313EAAD
:100E8000CC1317D150F8042B51F8043B9A4215D1DA
:100E9000A2EB0C03934313EACC130BD150F8042BB1
:100EA00051F8043B9A4209D1A2EB0C03934313EA95
:100EB000CC13DBD04FF00000704700BFD01A01BA4E
:100EC000B1FA81F101F0180122FA01F0CB40C1F131
:100ED0002001DBB2C0B2C01A2CFA01F3D11A91433F
:100EE00011EAC311E6D170477546FFF745FFAE46DC
:100EF00005006946534620F00700854618B020B526
:100F0000FFF760FABDE820404FF000064FF0000701
:100F10004FF000084FF0000B21F00701AC46ACE8A1
:100F2000C009ACE8C009ACE8C009ACE8C0098D460E
:100F300070473A2800D2303820F02002412A01D3ED
:100F4000A2F13700884201D34FF0FF30704710B54F
:100F50000446AFF300802046BDE81040FFF79DB97E
:100F6000002801D002F0E9BC7047000010B501284C
:100F700005D0002103A000F021F8012010BD09A137
:100F8000F8E7000053494752544D454D3A204F75FC
:100F900074206F662068656170206D656D6F727971
:100FA000000000003A2048656170206D656D6F7229
:100FB0007920636F727275707465640070B5054650
:100FC0000C460A2000E06D1C02F0B9FC35B128780F
:100FD0000028F8D102E0641C02F0B1FC14B12078C2
:100FE0000028F8D1BDE870400A2002F0A8BC00BF7C
:100FF000FEE77047016801F58051896921F002021E
:10100000016801F580518A617047016801F58051DE
:10101000896941F00202016801F580518A617047D7
:10102000016801F58051896921F40052016801F5D8
:1010300080518A617047016801F58051896941F4E6
:101040000052016801F580518A61704708B508496E
:101050000968C9084FF47A72B1FBF2F1414300917B
:1010600000BF00BF00994A1E00920029F9D108BDB7
:101070000000002038B5044600200090206800F5EC
:101080008050806940F48011206800F580508161B3
:10109000206800F58050806900900120FFF7D6FF9E
:1010A0000099206800F58050816138BD10B50A496B
:1010B000886A03F081FE08B108F04EFB4FF48031DE
:1010C0000548006800F580504161402102480068F1
:1010D00000F58050416110BDB004002030B50346DA
:1010E0001479557944EA0520084C0C442064D478DE
:1010F0002406957844EA0544557844EA0524157891
:1011000044EA0500014C0C44606430BD008002409C
:1011100070B5AEB004460E46002526B14FF400610E
:10112000E160C900A160002011901290139014900A
:1011300015901690E06918B94FF48060179001E09F
:10114000002017904FF400701890002019901A900A
:101150001B904FF000401C9000201D9040201E90DE
:1011600000201F902090219010202290002023909A
:101170002490259026908020279000202890299068
:101180002A902B902C902D9020680568704805407F
:10119000DDE9110108431399084314990843A16834
:1011A00008431599084316990843E16808431799BD
:1011B000084318990843199908431A9908431B9939
:1011C000084305432068056020680568012000F099
:1011D000CDFA20680560DDE91C0108431E9908432B
:1011E0001F990843209908432199084322990843ED
:1011F000239908432168486020684568012000F071
:10120000B5FA20684560249821688860259821688F
:10121000C860206885694FF641700540DDE92610F9
:1012200040EA014028990843299908432A9908432C
:101230002B99084305432068856120688569012052
:1012400000F094FA20688561DDE92C0108432168EB
:10125000C8612068C569012000F088FA2068C5616E
:10126000002001904FF000700290002003904FF496
:10127000001004900020059006900790089004202C
:101280000990C0050A9040120B9080010C9040120A
:101290000D9080200E9000200F901090206800F597
:1012A000805085692B480540DDE901010843039919
:1012B0000843049908430599084306990843079988
:1012C000084308990843099908430543206800F535
:1012D00080508561206800F580508569012000F00C
:1012E00045FA206800F580508561DDE90A01084370
:1012F0000C9908430D9908430E9908430F9940EA49
:1013000081001099084340F40001206800F58050E6
:101310000160206800F580500568012000F026FA81
:10132000206800F580500560A069012809D1206877
:1013300000F58050C06908490843216801F58051D3
:10134000C861002120466269FFF7C8FE2EB070BD5B
:101350000F8120FF233FDEF84000010038B504462E
:10136000002000902068006820F0040021680860D8
:101370002068006800900120FFF768FE009821684F
:10138000086038BD38B50446002000902068006829
:1013900040F0040021680860206800680090012087
:1013A000FFF754FE00982168086038BD38B5044640
:1013B000002000902068006820F008002168086084
:1013C0002068006800900120FFF740FE0098216827
:1013D000086038BD38B504460020009020680068D9
:1013E00040F0080021680860206800680090012033
:1013F000FFF72CFE00982168086038BD014908609D
:10140000704700000C3C024010B5002201B909E011
:10141000012901D10A0205E0022901D10A0201E0F5
:101420004FF440720E4B1B6823F440730C4C236046
:1014300023461B681343236023461B6823F0F803ED
:10144000236023461B68022444EAC0042343044C5F
:10145000236023461B6843F48033236010BD0000E3
:10146000103C024070B504460D4601264CF2503047
:1014700000F06EF80646DEB90E48006820F44070B1
:101480000C4908600846006840F48070086008460F
:10149000006840F00100086025804CF2503000F0F8
:1014A00057F806460348006820F00100014908602B
:1014B000304670BD103C02402348006800F0100028
:1014C00040B12248C06940F010002049C861102096
:1014D0001D4908601C48006800F0200040B11B480E
:1014E000C06940F008001949C86120201649086009
:1014F0001548006800F0400040B11448C06940F051
:1015000004001249C86140200F4908600E48006875
:1015100000F0800040B10D48C06940F002000B4966
:10152000C8618020084908600748006800F0020090
:1015300040B10648C06940F020000449C86102205B
:1015400001490860704700000C3C02403004002054
:1015500070B50446002500201449C86100F05CFF06
:10156000054609E0601C38B124B100F055FF401B6E
:10157000A04201D9032070BD0D48006800F48030FE
:101580000028EFD10A48006800F0010010B10120E6
:10159000074908600648006800F0F20018B1FFF73C
:1015A0008BFF0120E7E70020E5E700003004002082
:1015B0000C3C0240014600202C4A914203D2B1F17A
:1015C000006F00D350E02A4A914204D2274A914248
:1015D00001D3012048E0274A914204D2244A914293
:1015E00001D3022040E0244A914204D2214A914290
:1015F00001D3032038E0214A914204D21E4A91428D
:1016000001D3042030E01E4A914204D21B4A914289
:1016100001D3052028E01B4A914204D2184A914286
:1016200001D3062020E0184A914204D2154A914283
:1016300001D3072018E0154A914204D2124A914280
:1016400001D3082010E0124A914204D20F4A91427D
:1016500001D3092008E00F4A914204D20C4A91427A
:1016600001D30A2000E00B20704700000040000872
:101670000080000800C00008000001080000020807
:1016800000000408000006080000080800000A081E
:1016900000000C0800000E0870B50446A56D00F0AF
:1016A000BBFE064694F83500022808D0802060650D
:1016B00000BF002084F8340000BF012070BD206806
:1016C000006820F01600216808602068406920F05A
:1016D000800021684861206C08B9A06C28B120689E
:1016E000006820F00800216808602068006820F089
:1016F0000100216808600FE000F08EFE801B0528C5
:101700000AD92020606500BF002084F8340000BFA3
:10171000032084F83500D1E72068006800F001005C
:101720000028E9D194F85C103F208840A86000BFF1
:10173000002084F8340000BF012084F83500002028
:10174000BCE7014691F83500022803D080204865A7
:1017500001207047052081F835000868006820F0F6
:1017600001000A6810600020F3E7000070B504462D
:1017700000F052FE06462546681C10B10448007869
:10178000054400BF00F048FE801BA842FAD370BD9C
:101790002400002070B504460D461646002200BF06
:1017A00094F84500012801D1022070BD012084F881
:1017B000450000BF022084F84400A56200221FE01B
:1017C00005EB42114FF00040086044F2F4504860CD
:1017D000C2EBC21000EB400006EB80008860A069FD
:1017E000012803D1486820F000404860581E90420C
:1017F00004D905EB42102030C86000E0CD60521CD7
:101800009A42DDD3206800F58050C560012084F83D
:10181000440000BF002084F8450000BF00BFC4E7BB
:1018200070B504460D461646002200BF94F84500E8
:10183000012801D1022070BD012084F8450000BFBD
:10184000022084F84400E56200221BE005EB42110F
:101850004FF480100860C2EBC21000EB400006EBB2
:1018600080008860E06918B9086840F440000860AA
:10187000581E904204D905EB42102030C86000E0A9
:10188000CD60521C9A42E1D3206800F5805005617A
:10189000012084F8440000BF002084F8450000BF08
:1018A00000BFC8E70146002200BF91F845000128AB
:1018B00001D102207047012081F8450000BF0220BD
:1018C00081F84400886A006800F00040002838D1A0
:1018D000886A006800F48070F0B1886B401C8863EF
:1018E000886B012801D1886A08638B6A4B63886A18
:1018F0000068C0F30D40021FCA63086B83680B6465
:10190000886AC0688862012081F8440000BF002016
:1019100081F8450000BFCDE7886A006800F40070D8
:1019200048B1886A086300234B6301238B63886A8C
:10193000C068886205E0886B401C8863886AC0685C
:101940008862012081F8440000BF002081F8450032
:1019500000BF0120AEE700002DE9FC410446002550
:10196000002001909E4E0027804614B90120BDE85A
:10197000FC8194F8440028B9002084F845002046F2
:1019800000F03CF900BF002000909648006840F449
:101990008040944908600846006800F48040009048
:1019A00000BF00BF9048006820F400008E49086026
:1019B00008460068216A08438B490860206800F5E2
:1019C0008050006840F00101206800F580500160FF
:1019D00000F022FD07460FE000F01EFDC01BB0F531
:1019E000FA7F09D9032084F8440000BF002084F85E
:1019F000450000BF0320BAE7206800F5805000686A
:101A000000F001000028E7D12068056925F01C05D9
:101A100000F078FE06467548864205D37448864233
:101A200002D245F008051AE07148864205D36C4899
:101A3000864202D245F00C0511E06948864203D384
:101A40006C48864200D20AE06A48864205D36A485A
:101A5000864202D245F0040501E045F010052068F9
:101A600005614FF400420021204600F051FB48B1CF
:101A70004FF0010841462046FFF74AFB012084F859
:101A8000440074E740F6FF70FFF770FE60680028BE
:101A900071D000F0C1FC074600BF01AA0121204619
:101AA00000F0FCF900F0B8FCC01B41F2883188421C
:101AB0000FD94FF0010841462046FFF729FB0120CE
:101AC00084F8440000BF002084F8450000BF0320D4
:101AD0004DE7019800F004000428DED182020021C5
:101AE000204600F015FB48B14FF001084146204662
:101AF000FFF70EFB012084F8440038E700F08CFC6F
:101B0000074600BF01AA0121204600F0C7F900F0F6
:101B100083FCC01B41F2883188420FD94FF0010885
:101B200041462046FFF7F4FA012084F8440000BF44
:101B3000002084F8450000BF032018E7019800F05A
:101B400020002028DED101AA1121204600F0A6F9AC
:101B500048B14FF0010841462046FFF7D9FA01206D
:101B600084F8440003E7019800F4005020B14FF4DA
:101B70000061E16002E00EE00021E16044F210014A
:101B800001980840884202D10021A1601EE04FF474
:101B90008041A1601AE0E068C0F3CF00A168C1F302
:101BA0004F0140EA01020021204600F0B1FA48B19D
:101BB0004FF0010841462046FFF7AAFA012084F8B9
:101BC0004400D4E640F6FF70FFF7D0FD41462046C2
:101BD000FFF79EFA012084F844000020C7E60000C9
:101BE000008793034438024004380140002D31013E
:101BF000C00E160200E1F50580D1F00810B586B0E0
:101C0000044600BF00BF002000909F48006840F0DD
:101C100001009D4908600846006800F0010000903E
:101C200000BF00BF00BF00BF00BF002000900846FB
:101C3000006840F0010008600846006800F00100FC
:101C4000009000BF00BF00BF00BF00BF0020009099
:101C50000846006840F0010008600846006800F08F
:101C60000100009000BF00BF00BF00BF00BF002008
:101C700000900846006840F00400086008460068CC
:101C800000F00400009000BF00BF00BF00BF00BF15
:101C9000002000900846006840F0040008600846F4
:101CA000006800F00400009000BF00BF00BF00BF4C
:101CB00000BF002000900846006840F00400086063
:101CC0000846006800F00400009000BF00BF00BF9D
:101CD00000BF00BF002000900846006840F04000B0
:101CE00008600846006800F04000009000BF00BF98
:101CF00000BF00BF00BF002000900846006840F011
:101D0000400008600846006800F04000009000BFF6
:101D100000BF00BF00BF00BF002000900846006861
:101D200040F0400008600846006800F04000009065
:101D300000BF00BF00BF00BF00BF002000900846EA
:101D4000006840F4807008600846006800F4807005
:101D5000009000BF00BF00BF00BF00BF0020009088
:101D60000846006840F0007008600846006800F00F
:101D70000070009000BF00BF00BF00200090084628
:101D8000006840F0806008600846006800F08060ED
:101D9000009000BF00BF00BF002000900846006810
:101DA00040F0006008600846006800F000600090A5
:101DB00000BF00BF00BF02200190029000200390EE
:101DC000032004900B20059001A9304800F00CFA84
:101DD0000420019001A92D4800F006FA802001900E
:101DE00001A92A4800F000FA0220019001A9284820
:101DF00000F0FAF91020019001A9254800F0F4F94B
:101E00002020019001A9224800F0EEF94FF4006073
:101E1000019001A91F4800F0E7F94FF4005001902C
:101E200001A91C4800F0E0F94FF48040019001A99D
:101E3000184800F0D9F94FF4807001900120029009
:101E4000002003900320049001A9134800F0CCF96E
:101E500000BF00224FF480710F4800F0D1FA00BF9C
:101E6000322001F019FE00BF012211020A4800F0E1
:101E7000C7FA00BF002206213D2000F02EFB3D20C6
:101E800000F01BFB06B010BD3038024000000240DD
:101E90000008024000180240002002402DE9F041F5
:101EA00004460E4617460025A84694F844008228AA
:101EB00002D10220BDE8F081822084F8440020682D
:101EC000056905F01C05208A4FF4784101EAC0201D
:101ED0000543481100EA8610054325F0020545F048
:101EE00001052068056100F097FA804612E000F0D5
:101EF00093FAA0EB0800B0F5803F09D3012084F8E5
:101F0000440000BF002084F8450000BF0320D1E753
:101F10002068056905F001000028E8D120684069C3
:101F200080B23860012084F844000020C2E710B578
:101F3000044600BF94F84500012801D1022010BDDD
:101F4000012084F8450000BF022084F844002046A8
:101F5000FFF740FA2046FFF715FA2046FFF78AF808
:101F60002046FFF768F82046FFF74FF8012084F875
:101F7000440000BF002084F8450000BF00BFDEE73A
:101F800010B5044600BF94F84500012801D1022095
:101F900010BD012084F8450000BF022084F84400F1
:101FA0002046FFF73DF82046FFF724F82046FFF7CC
:101FB000D5F92046FFF75EF82046FFF7F7F9012034
:101FC00084F8440000BF002084F8450000BF00BF33
:101FD000DEE770B5024600230025002400BF92F81A
:101FE0004500012801D1022070BD012082F8450082
:101FF00000BF022082F8440049B9012082F8440061
:1020000000BF002082F8450000BF0120ECE7D06A45
:10201000006800F0004048B1122082F8440000BF80
:10202000002082F8450000BF0120DDE740F2F450B7
:10203000814208D9B1FBF0F3B1FBF0F600FB1610BA
:1020400010B15B1C00E00123012B13D1D06A0068A2
:1020500040F04050D66A3060C1F30C00D66A706020
:10206000D06A006840F00040D66A3060D06AC0682C
:10207000D06232E000242EE0D06A006820F04050A8
:10208000D66A30602CB9D06A006840F08050D66AB9
:10209000306040F2F450D66A7060581EA04210D1F1
:1020A000D06A006840F00050D66A3060581EC0EB1D
:1020B000C01000EB4000A1EB8005C5F30C00D66A10
:1020C0007060D06A006840F00040D66A3060D06A24
:1020D000C068D062641C9C42CED3106800F580506A
:1020E000406900F0040048B10426106800F58050F3
:1020F00046610026106800F580504660012082F895
:10210000440000BF002082F8450000BF00BF6BE71D
:102110002DE9F04104460E4617460025A84694F8DE
:102120004400422802D10220BDE8F081422084F818
:1021300044002068056905F01C05208A4FF47841A9
:1021400001EAC0200543481100EA8610054345F026
:10215000020545F00105B8B22168486120680561B3
:1021600000F05AF9804612E000F056F9A0EB0800A2
:10217000B0F5803F09D3012084F8440000BF00205F
:1021800084F8450000BF0320CEE72068056905F00C
:1021900001000028E8D1012084F844000020C3E7B2
:1021A0000348006840F00040014908600020704783
:1021B000103C024000200949096801F0004159B172
:1021C0000749064A0C3A116006491160034909683B
:1021D00001F0004101B1012070470000103C0240B5
:1021E00023016745AB89EFCDF8B502460B460025C4
:1021F000002400200021DEE0012606FA01F51E6819
:1022000006EA0504AC4275D11E7906F00306012EDC
:1022100004D01E7906F00306022E13D190684F00F9
:102220000326BE40B0434F00DE68BE40304390609E
:10223000506801268E40B0431E79C6F300168E40CA
:10224000304350601E7906F00306032E09D0D06893
:102250004F000326BE40B0434F009E68BE4030434F
:10226000D0601E7906F00306022E13D1CF0802F1CA
:10227000200656F827004E07F70E0F26BE40B04343
:102280004F07FF0E1E69BE403043CF0802F1200603
:1022900046F8270010684F000326BE40B0431E7961
:1022A00006F003064F00BE40304310605E6806F043
:1022B0008056B6F1805F7DD100BF00260096404E6B
:1022C000366846F480463E4F3E603E46366806F429
:1022D0008046009600BF00BF3A4E8F0856F8270090
:1022E0008E07370F0F26BE40B043374EB24202D1A1
:1022F000002624E05EE0354EB24201D101261EE008
:10230000334EB24201D1022619E0324EB24201D11F
:10231000032614E0304EB24201D104260FE02F4EC6
:10232000B24201D105260AE02D4EB24201D1062665
:1023300005E02C4EB24201D1072600E008268F07A7
:102340003F0FBE4030431F4E8F0846F82700264EF1
:102350003068A0435E6806F48036B6F5803F00D151
:102360002043214E3060361D3068A0435E6806F47D
:102370000036B6F5003F00D120431B4E361D3060BD
:10238000361D3068A0435E6806F48016B6F5801FDF
:1023900000D12043144E08363060361D3068A0430B
:1023A0005E6806F40016B6F5001F00D120430E4EFD
:1023B0000C363060491C1029FFF41EAFF8BD000038
:1023C0004438024008380140000002400004024046
:1023D00000080240000C02400010024000140240BD
:1023E00000180240001C0240003C014010B5426948
:1023F00021EA020302EA010443EA0443836110BDB7
:102400000AB1816101E00B048361704701480068F3
:10241000000C7047002004E001480068704700008D
:102420001C0000200348006803490978084401495A
:10243000086070471C0000202400002010B50A48E6
:10244000006840F40070084908600846006840F4DD
:1024500080600860032000F07FF80F2000F006F88D
:1024600000F02AF8002010BD003C024070B5044680
:102470000E4800784FF47A71B1FBF0F00C4909680E
:10248000B1FBF0F5284600F01DFC08B1012070BD3D
:10249000102C07D200222146501E00F01EF80548DD
:1024A000046001E00120F2E70020F0E724000020B2
:1024B0000000002020000020704701460846002848
:1024C00009DB00F01F0301229A4043099B0003F13E
:1024D000E023C3F8002100BF70472DE9F05F80467C
:1024E0000D461646002701F0E5F9074639462A460B
:1024F000334601F00700C0F1070ABAF1040F02D910
:102500004FF0040A01E0C0F1070AD14600F1040AC5
:10251000BAF1070F02D24FF0000A01E0A0F1030A5E
:10252000D4464FF0010A0AFA09FAAAF1010A0AEAA6
:10253000020A0AFA0CFA4FF0010B0BFA0CFBABF192
:10254000010B0BEA030B4AEA0B042146404601F05B
:10255000B9F9BDE8F09F000000BF00F00702064B8C
:1025600019684FF6FF031940044B0B4343EA02215D
:10257000014B196000BF70470CED00E00000FA0548
:1025800070B504460D460CB9012070BD584800686E
:1025900000F00700A84209D255490D7008460068AE
:1025A00000F00700A84201D00120EEE7207800F0FB
:1025B000020002281DD1207800F00400042805D173
:1025C0004C48006840F4E0504A490860207800F028
:1025D0000800082805D14748006840F46040454994
:1025E00008604448006820F0F000A16808434149B1
:1025F0000860207800F00100A8B36068012807D1C6
:102600003C4808380068C0F34040B8B90120BCE736
:102610006068022802D06068032807D1354808386E
:102620000068C0F3406048B90120AEE7314808387F
:102630000068C0F3400008B90120A6E72D480068F3
:1026400020F00300616808432A490860FFF7E4FEB0
:10265000064609E0FFF7E0FE801B41F28831884220
:1026600002D9032091E707E02248006800F00C003F
:102670006168B0EB810FEDD11D48006800F00700E4
:10268000A84209D91A490D700846006800F00700F1
:10269000A84201D0012078E7207800F00400042847
:1026A00007D11448006820F4E050E168084311495C
:1026B0000860207800F00800082808D10D4800685C
:1026C00020F46040216940EAC1000A49086000F036
:1026D0003FF808490968C1F30311074A515CC84033
:1026E0000649086006480068FFF7C0FE00204CE776
:1026F000003C0240083802402EAC010800000020D7
:102700002000002001480068704700000000002001
:1027100000B5FFF7F7FF04490968C1F38221034AB6
:10272000515CC84000BD0000083802403EAC0108C2
:1027300000B5FFF7E7FF04490968C1F34231034AD6
:10274000515CC84000BD0000083802403EAC0108A2
:102750002DE9F047002400250026A1462548006801
:1027600000F00C0020B1042805D008283AD105E07B
:10277000DFF8849039E0DFF8849036E01D48001FD0
:10278000006800F03F041B48001F006800F4800050
:1027900078B11A481749091F0968C1F38811A0FBCD
:1027A00001700146224600233846FDF756FE0546D5
:1027B0000EE011480F49091F0968C1F38811A0FBF9
:1027C00001700146224600233846FDF746FE0546C5
:1027D0000848001F0068C0F30140401C4600B5FBDC
:1027E000F6F902E0DFF8109000BF00BF4846BDE8F0
:1027F000F0870000083802400024F40000127A003C
:10280000F8B504460CB90120F8BD207800F00100AD
:10281000002874D0F948006800F00C0004280DD09E
:10282000F648006800F00C00082813D1F348001F98
:10283000006800F48000B0F5800F0BD1EF48083835
:102840000068C0F34040002859D06068002856D185
:102850000120D9E700BF6068B0F5803F08D1E748A4
:102860000838006840F48030E449083908601EE008
:102870006068B0F5A02F0DD1E0480838006840F43A
:102880008020DE49083908600846006840F480303E
:1028900008600CE0D9480838006820F48030D74937
:1028A000083908600846006820F48020086000BFEE
:1028B000606890B1FFF7B0FD054606E0FFF7ACFD9C
:1028C000401B642801D903209EE7CC4808380068E3
:1028D000C0F340400028F1D011E0FFF79DFD054610
:1028E00006E0FFF799FD401B642801D903208BE720
:1028F000C24808380068C0F340400028F1D1207871
:1029000000F0020002285FD1BC48006800F00C0013
:1029100058B1BA48006800F00C0008281CD1B7482C
:10292000001F006800F48000B0B9B448083800689F
:10293000C0F3400020B1E068012801D0012063E726
:10294000AE480838006820F0F800216940EAC1006C
:10295000AA490839086037E0E06800B30120A849B7
:102960000860FFF759FD054606E0FFF755FD401BDF
:10297000022801D9032047E7A04808380068C0F3BF
:1029800040000028F1D09D480838006820F0F80089
:10299000216940EAC10099490839086014E0002023
:1029A00097490860FFF738FD054606E0FFF734FD5C
:1029B000401B022801D9032026E790480838006808
:1029C000C0F340000028F1D1207800F0080008286A
:1029D0002CD16069A8B101208A490860FFF71CFD6D
:1029E000054606E0FFF718FD401B022801D9032029
:1029F0000AE782486C300068C0F340000028F1D03C
:102A000014E000207F490860FFF706FD054606E058
:102A1000FFF702FD401B022801D90320F4E67748A6
:102A20006C300068C0F340000028F1D1207800F03D
:102A30000400042870D1002770483830006800F086
:102A4000805090B900BF002000906C48383000687A
:102A500040F080506949383108600846006800F04D
:102A60008050009000BF00BF01276748006800F455
:102A70008070B0B96448006840F4807062490860B2
:102A8000FFF7CAFC054606E0FFF7C6FC401B02281C
:102A900001D90320B8E65C48006800F48070002883
:102AA000F2D000BFA068012808D1544868300068FF
:102AB00040F001005149683108601DE0A068052818
:102AC0000DD14E486830006840F004004B49683131
:102AD00008600846006840F0010008600CE04748C4
:102AE0006830006820F001004449683108600846F9
:102AF000006820F00400086000BFA068A8B1FFF7DC
:102B00008BFC054609E0FFF787FC401B41F288314A
:102B1000884202D9032077E626E03848683000680A
:102B2000C0F340000028EED013E0FFF775FC054627
:102B300008E0FFF771FC401B41F28831884201D95F
:102B4000032061E62D4868300068C0F3400000288B
:102B5000EFD1012F07D129483830006820F080508C
:102B600026493831086000BFA069002845D02348B5
:102B7000006800F00C0008285DD0A069022845D14B
:102B800000201F490866FFF747FC054606E0FFF7EF
:102B900043FC401B022801D9032035E617480838BA
:102BA0000068C0F340600028F1D1D4E90701084370
:102BB000616A40EA81110122A06AC2EB500041EA39
:102BC00000412C20005D41EA00600C49091F0860AB
:102BD00001200B490866FFF71FFC054606E0FFF7DA
:102BE0001BFC401B022801D903200DE603480838CE
:102BF0000068C0F340600028F1D049E00838024086
:102C000000004742800E47420070004000202149EA
:102C10000866FFF701FC054606E0FFF7FDFB401BD9
:102C2000022801D90320EFE51B480068C0F340608B
:102C30000028F2D12CE0A069012800D1E4E5164873
:102C4000001D0668A069012820D006F48001E06913
:102C500081421BD106F03F01206A814216D147F61E
:102C6000C0703040616AB0EB811F0FD106F4403173
:102C70000122A06AC2EB5000B1EB004F06D106F072
:102C800070612C20005DB1EB006F01D00120BBE52D
:102C90000020B9E50000474200380240042808D16E
:102CA0004FF0E021096941F004014FF0E022116189
:102CB00007E04FF0E021096921F004014FF0E02224
:102CC0001161704770B504462546681EB0F1807FDB
:102CD00001D301200FE0681E4FF0E02148610F2171
:102CE0004FF0FF3000F0EEFD00204FF0E021886152
:102CF00007200861002070BD10B504460CB9012002
:102D000010BD94F83D0028B9002084F83C0020460E
:102D100000F025F8022084F83D00211D206800F015
:102D200055FB012084F8460000BF84F83E000121D5
:102D30003F200155402001554120015500BF00BFF3
:102D4000012084F8420043200155442001554520CC
:102D5000015500BF012084F83D000020D0E77047F6
:102D6000014691F83D00012801D001207047022062
:102D700081F83D000868C06840F001000B68D86029
:102D80001A4B086898421BD00868B0F1804F17D0E2
:102D9000174B0868984213D0164B086898420FD01A
:102DA000154B086898420BD0144B0868984207D01E
:102DB000134B0868984203D0124B086898420CD114
:102DC0000868806800F00702062A0CD008680068CE
:102DD00040F001000B68186005E00868006840F0EA
:102DE00001000B6818600020C0E7000000000140EF
:102DF0000004004000080040000C004000040140B6
:102E00000040014000180040704770472DE9F84F1E
:102E10000446206805682068C668206847694FF046
:102E20000009CA4605F00F09B9F1000F0AD105F0F3
:102E3000200038B106F0200020B1204600F067FBEA
:102E4000BDE8F88FB9F1000F72D007F0010018B992
:102E500006F4907000286BD005F0010030B106F444
:102E6000807018B1206C40F00100206405F004006F
:102E700030B107F0010018B1206C40F0020020646E
:102E800005F0020030B107F0010018B1206C40F0ED
:102E90000400206405F0080048B106F0200010B9D5
:102EA00007F0010018B1206C40F008002064206C8D
:102EB00070B305F0200028B106F0200010B12046C4
:102EC00000F025FB20684069C0F3801A206C00F0F8
:102ED000080010B9BAF1000F23D0204600F0ECFA38
:102EE0002068406900F04000402816D12068406901
:102EF00020F0400021684861A06B50B15648A16B9A
:102F00000865A06BFEF71DFC10B1A06B016D884732
:102F10000CE02046FFF779FF08E02046FFF775FF39
:102F200004E02046FFF771FF0020206488E7FFE7F8
:102F3000206B012879D105F01000002875D006F02B
:102F40001000002871D000BF0020009020680068A9
:102F5000009020684068009000BF00BF2068406972
:102F600000F04000402839D1A06B006840681FFA8B
:102F700080F8B8F1000F30D0A08D40452DDDA4F8C9
:102F80002E80A06BC069B0F5807F1FD02068C0681C
:102F900020F480702168C8602068406920F001003A
:102FA000216848612068406920F04000216848613C
:102FB000202084F83E00002020632068C06820F0B4
:102FC00010002168C860A06BFEF766FBA08DE28D43
:102FD000801A81B22046FFF717FF31E7A08DE18DFF
:102FE000401A1FFA80F8E08DE8B1B8F1000F1AD04E
:102FF0002068C06820F490702168C860206840692B
:1030000020F0010021684861202084F83E00002063
:1030100020632068C06820F010002168C860414625
:103020002046FFF7F1FE0BE7FFE705F0800030B127
:1030300006F0800018B1204600F001FC00E705F022
:10304000400030B106F0400018B1204600F04FFAC1
:10305000F6E600BFF4E60000A534000810B504460B
:103060000CB9012010BDA06900B100E000BF94F8C8
:103070003D0028B9002084F83C00204600F028F8E4
:10308000242084F83D002068C06820F400502168A6
:10309000C860204600F09AFA2068006920F4904049
:1030A000216808612068406920F02A002168486191
:1030B0002068C06840F400502168C8600020206487
:1030C000202084F83D0084F83E000020CAE700007C
:1030D00010B586B004462E492068884255D100BFFD
:1030E00000BF002000902B48006840F010002949E4
:1030F00008600846006800F01000009000BF00BFA4
:1031000000BF00BF00BF00200090224814380068B4
:1031100040F002001F49143908600846006800F0BA
:103120000200009000BF00BF00BF00BF00BF002032
:1031300000900846006840F00200086008460068F9
:1031400000F00200009000BF00BF00BF0815019012
:103150000220029001200390022004900720059095
:1031600001A90D48FFF740F84FF4006001900720D7
:10317000059001A90848FFF737F82720FFF79DF9C8
:10318000032211462720FFF7A8F906B010BD000062
:1031900000480040443802400004024070B5044634
:1031A0000D46164694F83E00202816D105B10EB9FA
:1031B000012070BD00BF94F83C00012801D102201D
:1031C000F7E7012084F83C0000BF0020206332466E
:1031D0002946204600F010FBEBE70220E9E700005B
:1031E00010B504462049206888423BD11F4800881A
:1031F00000F4004088BB1D48008800F4804070B196
:103200001B4800780A2803D000201849088024E0D1
:103210001648008840F40040144908801DE0144816
:1032200000780D2806D11148008840F480400F49ED
:10323000088012E00E4800780C490988C1F30D019E
:103240000C4A505409480088401C08490880084628
:103250000088C72801DD00200880012204490648B3
:10326000FFF79CFF10BD0000004800401800002040
:103270001A00002024030020EC030020704700BF48
:10328000FEE7F8B506460C46154637466408FEF7D5
:1032900091FFF320FEF7B2F8002000900AE00098BA
:1032A00037F810102846FEF7DDF800B9AD1C00987D
:1032B000401C00900098A042F1D3FEF771FFF8BDCA
:1032C00038B516480068C0F30070F0B913480068BC
:1032D00040F080701149086011A0FDF735F94FF4F6
:1032E000FA7000F0D9FB012080F3108800BF72B69D
:1032F000114840680090009C0F49086880F30888D6
:1033000000BF08460D490860A047002080F31088E0
:1033100000BF62B60AA0FDF717F938BD7438024045
:103320006A756D7020746F2075736572617070219D
:1033300021210D0A000000000000020808ED00E055
:103340006A756D7020746F20626F6F746C6F61644A
:1033500065722121210D0A0000BFFEE7704710B5FC
:10336000FFF760F817F08AF8012801D016F05CFB2F
:1033700010BD00000348006840F470000149086077
:103380007047000088ED00E010B50E480068C06886
:1033900000F0010078B10C49086980470020094914
:1033A0000968486200BF642006490968C862642150
:1033B0000448C16000BF6FF001000249096808615C
:1033C00010BD0000F80400208400002010B5026841
:1033D000294B98420ED0B0F1804F0BD0274B98422A
:1033E00008D0274B984205D0264B984202D0264B56
:1033F000984203D122F070024B681A431E4B984248
:1034000020D0B0F1804F1DD01C4B98421AD01C4BDD
:10341000984217D01B4B984214D01B4B984211D0A6
:103420001A4B98420ED01A4B98420BD0194B984227
:1034300008D0194B984205D0184B984202D0184B2F
:10344000984203D122F44072CB681A4322F08003E1
:103450004C6943EA040202608B68C3620B688362B2
:10346000054B984202D0084B984201D10B69036387
:103470000123436110BD0000000001400004004032
:1034800000080040000C00400004014000400140E2
:10349000004401400048014000180040001C00406A
:1034A0000020004070B50546AC6B0020E085E0844C
:1034B0002046FFF7AAFC70BD0168C96821F490712D
:1034C0000268D1600168496921F001010268516117
:1034D000016B012905D10168C96821F0100102685A
:1034E000D160202180F83E1000210163704710B5A3
:1034F00004462068C06820F040002168C860202091
:1035000084F83D002046FFF7B9FE002010BD70B5DD
:10351000044694F83E00222856D1A068B0F5805F9A
:103520000CD1206950B90025A66A20684068C0F314
:1035300008003080A06A801CA06215E0A56A002601
:10354000A068B0F5805F03D0A06828B9206918B9D9
:1035500020684068287004E02068406800F07F0020
:103560002870A06A401CA062E08D401E80B2E085F9
:1035700040BB2068C06820F020002168C860206837
:10358000C06820F480702168C8602068406920F01D
:10359000010021684861202084F83E00206B01284A
:1035A0000AD12068C06820F010002168C860A18D91
:1035B0002046FFF729FC02E02046FFF711FE00201D
:1035C000206370BD0020FCE70220FAE72DE9F84FE8
:1035D00004462068006920F44050E16808432168EF
:1035E00008612169A068084361690843E1690843EB
:1035F00000902068C06849F20C6188430099084334
:103600002168C8602068406920F44070A1690843BF
:103610002168486176492068884203D0754920684E
:10362000884203D1FFF784F8814602E0FFF770F883
:103630008146E069B0F5004F6CD102206168A0FBC3
:10364000015003461920A9FB007001462A4638465E
:10365000FCF703FF6421B0FBF1F04FEA001A0220EF
:103660006168A0FB01510B461920A9FB00712A4695
:103670003846FCF7F2FE834602206168A0FB015049
:1036800003461920A9FB00712A463846FCF7E5FEDF
:103690006421B0FBF1F000EBC00101EB0010ABEBDB
:1036A0008000322101EBC0006421B0FBF1F000F09A
:1036B000F8000AEB400A02206168A0FB01500346B3
:1036C0001920A9FB007001462A463846FCF7C5FEC2
:1036D000834602206168A0FB015003461920A9FB24
:1036E00000712A463846FCF7B8FE6421B0FBF1F0C1
:1036F00000EBC00101EB0010ABEB8000322101EBCD
:10370000C0006421B0FBF1F000F0070050442168D4
:1037100088606AE004206168A0FB0150034619201C
:10372000A9FB007001462A463846FCF796FE824601
:1037300004206168A0FB015003461920A9FB00701A
:1037400001462A463846FCF788FE6421B0FBF1F0BA
:1037500000EBC00101EB0010AAEB8000322101EB6D
:1037600000106421B0FBF1F000F0F00A0420616861
:10377000A0FB017003461920A9FB00513A462846D8
:10378000FCF76BFE6421B0FBF1F00AEB001A042099
:103790006168A0FB01510B461920A9FB00712A4664
:1037A0003846FCF75AFE834604206168A0FB0150AE
:1037B00003461920A9FB007001462A463846FCF74B
:1037C0004CFE6421B0FBF1F000EBC00101EB0010F6
:1037D000ABEB8000322101EB00106421B0FBF1F073
:1037E00000F00F00504421688860BDE8F88F0000A9
:1037F000001001400014014010B5034699629A85FB
:10380000DA8500201864222083F83E0000BF0020E3
:1038100083F83C0000BF1868C06840F480701C68E2
:10382000E0601868406940F001001C686061186839
:10383000C06840F020001C68E060002010BD014618
:1038400091F83D00212828D18868B0F5805F0BD120
:10385000086948B90A6A1088C0F308000B68586004
:10386000086A801C086205E00B6A581C0862187818
:103870000B685860C88C401E80B2C88458B908686C
:10388000C06820F080000B68D8600868C06840F00D
:1038900040000B68D860002070470220FCE7000061
:1038A00010B50248FFF7B2FA10BD0000EC0300208B
:1038B00000BFFEE702480068C0F302207047000026
:1038C0000CED00E010B5002804DB0A07130E054AD2
:1038D000135406E00A07140E034A00F00F031B1FDF
:1038E000D45410BD00E400E018ED00E000BF00BFBC
:1038F00000BFBFF34F8F00BF00BF00BF0948006883
:1039000000F4E06008490843001D0649086000BF54
:1039100000BF00BFBFF34F8F00BF00BF00BF00BF9D
:1039200000BFFDE70CED00E00000FA0530380A2882
:1039300001D2012070470020704700BF704700BFD0
:10394000704700002DE9F04105460E46002445E091
:103950000BF00AFF0746244800EB0410006800281B
:1039600038D1214800EB0410056038460BF092FF77
:1039700000201D4901EB0411486000BF1A4800EB0C
:103980000410807B002808D000BF18A340F20E224C
:1039900021A129A0FCF7D8FD00BF00BF00201249DB
:1039A00001EB04110881287800F0F000102804D100
:1039B0000EB1012002E0002000E001200A4901EBE5
:1039C000041148810020084901EB04118881204638
:1039D000BDE8F08138460BF05DFF641C042CB7DBBA
:1039E0004FF0FF30F4E70000F08400202E2E5C2E14
:1039F0002E5C4D6964646C6577617265735C4C57CD
:103A000049505C7372635C6170695C736F636B6572
:103A100074732E6300000000736F636B6574735BD7
:103A2000695D2E73656C6563745F77616974696E37
:103A300067203D3D20300000417373657274696FEB
:103A40006E2022257322206661696C656420617492
:103A5000206C696E6520256420696E2025730A003C
:103A600070B504460420FFF719F90A48046025469A
:103A70004FF47A7045434FF0E020006940F00200B7
:103A80004FF0E021086108464561006940F00100FF
:103A9000086170BD1000002030B50446002504E028
:103AA0004FF47A7000F004F86D1CA542F8D330BDD5
:103AB00070B5034600224FF0E02675690D4E36685A
:103AC00003FB06F44FF0E026B16910E04FF0E0266A
:103AD000B06988420BD0884202D20E1A324402E00A
:103AE0002E1A0E4432440146A24200D300E0EDE714
:103AF00000BF70BD100000202DE9F04104460D46C6
:103B000000BF05F00300002808D000BF0BA34FF44E
:103B1000B67214A11BA0FCF717FD00BF00BF2E4614
:103B20000BF022FE0746E06800683060E06806603F
:103B300038460BF0AFFEBDE8F08100002E2E5C2E63
:103B40002E5C4D6964646C6577617265735C4C577B
:103B500049505C7372635C636F72655C6D656D7018
:103B60002E6300006D656D705F667265653A206D4D
:103B7000656D2070726F7065726C7920616C696719
:103B80006E656400417373657274696F6E202225DF
:103B90007322206661696C6564206174206C696EB3
:103BA0006520256420696E2025730A0070B50546DE
:103BB0000BF0DAFD0646E8680468002C16D0206891
:103BC000E968086000BF04F00300002808D000BFC7
:103BD0000AA34FF48C7213A11BA0FCF7B5FC00BF25
:103BE00000BF30460BF056FE204670BD30460BF04D
:103BF00051FE00BF00BF0020F7E700002E2E5C2E14
:103C00002E5C4D6964646C6577617265735C4C57BA
:103C100049505C7372635C636F72655C6D656D7057
:103C20002E6300006D656D705F6D616C6C6F633A43
:103C3000206D656D702070726F7065726C79206197
:103C40006C69676E65640000417373657274696FB7
:103C50006E2022257322206661696C656420617480
:103C6000206C696E6520256420696E2025730A002A
:103C70002DE9F05F80460E46444600BF44B900BFC0
:103C80004DA34FF4DC7257A15AA0FCF75DFC00BFB6
:103C900000BF0BF069FD834600206060267294F837
:103CA000200040F0010084F820006578002060705A
:103CB00058460BF0EFFDA06A20B1002204212046F7
:103CC000A36A9847A06A20B1002211462046A36A41
:103CD0009847A06A20B1002202212046A36A984793
:103CE000304605F087FC824604F1100030B12069AF
:103CF00020B1514604F110000BF0B8FE04F114009D
:103D000030B1606920B1514604F114000BF0AEFEF1
:103D1000012D03D0042D01D0032D3ED194F82000B5
:103D2000C0F3800900BF00BF94F8200000F0FB0042
:103D300084F8200000BF00BFB9F1000F2CD100BFF4
:103D4000606A40B900BF1CA34FF4F37233A129A0ED
:103D5000FCF7FAFB00BF00BF042D03D10020616A0D
:103D6000087101E0606A0671606A006800F10C0782
:103D700000BF0FB1386840B900BF0FA340F2EF1287
:103D80002DA11CA0FCF7E0FB00BF00BF002060627B
:103D900038460CF003F900BF0CE000BF606A40B188
:103DA00000BF05A340F2F7122AA112A0FCF7CCFB3A
:103DB00000BF00BFBDE8F09F2E2E5C2E2E5C4D692B
:103DC00064646C6577617265735C4C5749505C73D1
:103DD00072635C6170695C6170695F6D73672E63AB
:103DE00000000000636F6E6E20213D204E554C4C4C
:103DF00000000000417373657274696F6E202225A4
:103E00007322206661696C6564206174206C696E40
:103E10006520256420696E2025730A00636F6E6E2D
:103E20002D3E63757272656E745F6D736720213D00
:103E3000204E554C4C000000696E61766C69642020
:103E40006F705F636F6D706C657465645F73656DD3
:103E500000000000636F6E6E2D3E63757272656EBA
:103E6000745F6D7367203D3D204E554C4C00000043
:103E70000146002902DC4842112801DB0520704779
:103E800002484A4250F82200F9E7000064AC0108F9
:103E900070B50546002411E004EB4400094901EB2C
:103EA000C000067D4EB104EB440001EBC000806809
:103EB000A84202D1204600F08FF9641C0A2CEBDBEB
:103EC00070BD00008C4F01202DE9FF5F064689463A
:103ED00017464FF00A0AD346D04600240A20039022
:103EE000002002900190009000BF77E004EB4400B6
:103EF0007C4901EBC000057DB8F10A0F04D11DB962
:103F000000BF00BFA04667E0002D65D000BF012DB7
:103F10000AD0022D08DA00BF73A340F223127EA15B
:103F20008DA0FCF711FB00BF00BFBEB104EB440144
:103F30006C4A02EBC1013068496888420ED13FB13A
:103F400004EB4400114601EBC0008068B84205D183
:103F500000BF00BF204604B0BDE8F09F012D28D16E
:103F600004EB44005F4951F8300080B104EB440099
:103F700001EBC000418A029881422DDB039404EBDF
:103F80004400584901EBC000408A029024E004EB51
:103F90004400544901EBC000418A019881421BDB77
:103FA000A24604EB44004F4901EBC000408A019057
:103FB00012E0022D10DB04EB44004A4901EBC00083
:103FC000418A0098814207DBA34604EB440045493F
:103FD00001EBC000408A0090601C04B20A2C85DB13
:103FE00009F0020028B9B8F10A0F07D109F0010061
:103FF00020B900BF00BF4FF0FF30ACE7B8F10A0FA7
:1040000002DA444600BF37E0BBF10A0F13DA5C4620
:1040100000BF00BF00BF04EB4400324951F830003C
:1040200040B100BF30A340F26D1255A14AA0FCF789
:104030008BFA00BF10E0BAF10A0F02DA544600BF53
:104040000AE003980A2802DA039C00BF04E000BFDC
:1040500000BF4FF0FF307EE700BF0A2C08DB00BF37
:1040600021A340F27F124CA13BA0FCF76DFA00BFE8
:1040700000BF204600F0B0F800BF0A2C08DB00BFEC
:1040800019A340F2831244A133A0FCF75DFA00BFEC
:1040900000BF00BF04EB4400124901EBC000007DEB
:1040A00040B100BF10A34FF4C27240A12AA0FCF798
:1040B0004BFA00BF00BF36B104EB4401094A02EBE2
:1040C000C10130684860002004EB4401054A02EB5E
:1040D000C101488204EB4400114601EBC000876037
:1040E000204638E78C4F01202E2E5C2E2E5C4D6929
:1040F00064646C6577617265735C4C5749505C739E
:1041000072635C636F72655C697076345C65746859
:104110006172702E630000007374617465203D3D10
:10412000204554484152505F53544154455F5045D7
:104130004E44494E47207C7C207374617465203E58
:104140003D204554484152505F53544154455F53BC
:104150005441424C45000000417373657274696FAD
:104160006E2022257322206661696C65642061746B
:10417000206C696E6520256420696E2025730A0015
:104180006172705F7461626C655B695D2E71203D68
:104190003D204E554C4C000069203C204152505F60
:1041A0005441424C455F53495A4500006172705F6B
:1041B0007461626C655B695D2E7374617465203D2A
:1041C0003D204554484152505F53544154455F454A
:1041D0004D5054590000000010B5044604EB440053
:1041E000194951F8300070B100BF00BF04EB440121
:1041F000154A52F8310009F015FB002004EB440188
:10420000114A42F83100002004EB44010E4A02EB4F
:10421000C101087504EB440102EBC101488204EBC3
:10422000440102EBC101886004EB440102EBC101CF
:10423000486004EB4400114601EBC00003490A68E2
:10424000C2608988018210BD8C4F012042AE0108F6
:10425000F0B587B007460D4600BF35B900BF33A0A3
:10426000FCF772F900BF07B0F0BD00BF7C68208882
:10427000B0F5807F08D12079062805D1607904281F
:1042800002D16088082805D000BF00BF384609F079
:10429000C9FAE8E7D4F80E000690A06905906868AE
:1042A00008B9002607E005986968884201D1012015
:1042B00000E0002006460EB1012000E00220034687
:1042C00004F1080206A9284600F0BEFCE088B0F51B
:1042D000807F03D0B0F5007F1ED11AE000BF00BF81
:1042E00086B1022206AB04F10800291DCDE9023295
:1042F000CDE9001005F12A0302462631284600F0D8
:1043000049FB05E0686808B900BF01E000BF00BFD5
:1043100005E000BF00BF02E000BF00BF00BF00BF5C
:10432000384609F07FFA00BF9DE700006E657469AA
:104330006620213D204E554C4C0000002DE9FE43E7
:1043400004460F461546A94600BF44B900BF5DA309
:1043500040F21E3267A16BA0FCF7F6F800BF00BF69
:1043600000BF47B900BF57A340F21F326FA165A03D
:10437000FCF7EAF800BF00BF00BF45B900BF51A37A
:104380004FF448726CA15FA0FCF7DEF800BF00BFDD
:104390002146286801F079FF10B1DFF8AC8186E092
:1043A000287800F0F000E02816D101208DF80400F4
:1043B00000208DF805005E208DF80600687800F07A
:1043C0007F008DF80700A8788DF80800E8788DF850
:1043D00009000DF1040869E02868A1680840D4E9E3
:1043E0000112114088420ED0288880B24FF6A96190
:1043F000884208D0E06810B104F10C0903E06FF0C6
:104400000300BDE8FE835148007800EB40005049AE
:1044100001EBC000007D02281BDB4C48007800EB5C
:10442000400001EBC0008068A04212D147490978E2
:1044300001EB4101464A02EBC101D9F8000049688D
:10444000884206D1414802783946204600F082F879
:10445000D7E7002622E006EB46003D4901EBC0000D
:10446000007D022818DB06EB460001EBC0008068E7
:10447000A04211D106EB4601354A02EBC101D9F841
:1044800000004968884207D13048067032463946F4
:10449000204600F05FF8B4E7701CC6B20A2EDADBE3
:1044A0003A464946204600F005F9AAE700BF4FF416
:1044B0000060434604F12A0239460090204600F08D
:1044C0005FFD9EE72E2E5C2E2E5C4D6964646C654C
:1044D00077617265735C4C5749505C7372635C63BF
:1044E0006F72655C697076345C6574686172702E99
:1044F000630000006E6574696620213D204E554CB6
:104500004C000000417373657274696F6E20222540
:104510007322206661696C6564206174206C696E29
:104520006520256420696E2025730A007120213DD5
:10453000204E554C4C00000069706164647220216B
:104540003D204E554C4C00003CAE01085802002066
:104550008C4F0120F8B505460E46144600BF04EB0B
:104560004400314901EBC000007D022808DA00BF99
:104570002EA340F2EE2239A144A0FBF7E5FF00BFD5
:1045800000BF04EB4400284901EBC000007D022875
:1045900039D104EB440001EBC000408AB0F58E7FB6
:1045A00011DD04EB44000A4602EBC000011D284661
:1045B00000F0B4FA38BB032004EB44011A4A02EBC2
:1045C000C10108751FE004EB4400174901EBC0006E
:1045D000408AB0F5877F16DB04EB44000B4603EB03
:1045E000C00000F10C0204EB440003EBC000011D0D
:1045F000284600F0A1FA30B9032004EB44010A4A2E
:1046000002EBC10108754FF40060009004EB440018
:10461000054901EBC00000F10C0305F12A02314607
:10462000284600F0ADFCF8BD8C4F01202E2E5C2EEC
:104630002E5C4D6964646C6577617265735C4C5780
:1046400049505C7372635C636F72655C6970763449
:104650005C6574686172702E630000006172705F47
:104660007461626C655B6172705F6964785D2E7302
:1046700074617465203E3D204554484152505F535B
:10468000544154455F535441424C45004173736556
:104690007274696F6E2022257322206661696C65D1
:1046A00064206174206C696E6520256420696E2029
:1046B00025730A002DE9FC5F81460F46164609F175
:1046C0002A0001904FF0FF3A4FF0000B494638683E
:1046D00001F0DBFD38B9387800F0F000E02802D0B6
:1046E0000FB1386828B900BF00BF6FF00F00BDE8F8
:1046F000FC9F4A4601213846FFF7E6FB8046B8F1A9
:10470000000F07DA00BF00BF0EB100BF00BF4FFAB5
:1047100088F0ECE700BFB8F17F0F08D300BF6DA3AE
:1047200040F2C13277A17BA0FBF70EFF00BF00BFB4
:1047300008F0FF0404EB4400804901EBC000007D59
:1047400078B94FF0010B012004EB44017B4A02EBE6
:10475000C101087504EB4400114601EBC000C0F82C
:10476000089000BF04EB4400744901EBC000007DD9
:1047700001280FD004EB440001EBC000007D0228AB
:1047800008DA00BF53A340F2CD326DA161A0FBF760
:10479000DBFE00BF00BFBBF1000F00D1F6B9394608
:1047A000484600F0BBF98246BAF1000F13D104EB82
:1047B0004400624901EBC000007D01280BD1BBF130
:1047C000000F08D100BF00BF002004EB44015B4A8A
:1047D00002EBC10148820EB9504688E700BF46B9D6
:1047E00000BF3CA340F2E9325FA14AA0FBF7ACFE58
:1047F00000BF00BF04EB4400504901EBC000007D46
:10480000022811DB5B4804704FF40060009004EB59
:10481000440001EBC00000F10C0331464846019A08
:1048200000F0AEFB824653E004EB4400434901EB49
:10483000C000007D01284BD100200090354618E0D3
:1048400000BF6889298988420AD1286840B100BF21
:1048500020A340F2F93248A12EA0FBF775FE00BF5D
:1048600000BF287B00F0400010B10120009002E062
:104870002D68002DE4D100BF009838B132464FF4C6
:1048800020710E2008F092FD054603E035462846CB
:1048900009F096F9BDB104EB4400284951F8300005
:1048A00040B100BF00BF04EB4401244A52F831007C
:1048B00008F0B8FF04EB4400204941F830504FF0B5
:1048C000000A00BF03E000BF00BF4FF0FF3A00BF87
:1048D00050460CE72E2E5C2E2E5C4D6964646C6590
:1048E00077617265735C4C5749505C7372635C63AB
:1048F0006F72655C697076345C6574686172702E85
:104900006300000074797065206F766572666C6F65
:1049100077000000417373657274696F6E20222501
:104920007322206661696C6564206174206C696E15
:104930006520256420696E2025730A008C4F0120B4
:104940006172705F7461626C655B695D2E73746126
:104950007465203D3D2050454E44494E47206F72BE
:1049600020535441424C45007120213D204E554C6E
:104970004C000000580200206E6F207061636B6570
:10498000742071756575657320616C6C6F776564F3
:10499000210000002DE9FC5F06460F46904699462F
:1049A000DDE90CAB0020019000BF46B900BF33A386
:1049B00040F25F423DA141A0FBF7C6FD00BF00BF32
:1049C0004FF420721C210E2008F064FA05462DB920
:1049D00000BF00BF4FF0FF30BDE8FC9F00BF6889FB
:1049E0001C2808DA00BF25A340F26A423DA133A08B
:1049F000FBF7AAFD00BF00BF6C6800BF00BF0F98A7
:104A000003F0F1FDE08000BF96F83000062808D0E2
:104A100000BF1AA340F271423F4928A0FBF794FD62
:104A200000BF00BFD9F80000A060B9F80400A08161
:104A3000DBF80000C4F81200BBF80400E082DAF8EA
:104A40000000C4F80E000E980068A0614FF480705A
:104A5000208008206080062020710420607140F6CC
:104A6000060043463A4629460090304600F088FA50
:104A7000284608F0D7FE00250198ADE72E2E5C2EC3
:104A80002E5C4D6964646C6577617265735C4C572C
:104A900049505C7372635C636F72655C69707634F5
:104AA0005C6574686172702E630000006E657469E5
:104AB0006620213D204E554C4C000000417373652B
:104AC0007274696F6E2022257322206661696C659D
:104AD00064206174206C696E6520256420696E20F5
:104AE00025730A00636865636B20746861742066CF
:104AF0006972737420706275662063616E20686FDE
:104B00006C6420737472756374206574686172706C
:104B10005F686472000000003CB1010870B5044693
:104B20000D4600BF00BF034A2946204600F004F8A6
:104B300070BD00003CAE01087FB504460D46164628
:104B40000121074A201D04F12A038DE82500039165
:104B5000324619462046FFF71DFF04B070BD000025
:104B600042AE010870B500BF00BF002466E004EB50
:104B70004400344901EBC000057D002D5DD004EBFD
:104B8000440001EBC000408A401C04EB44012D4A64
:104B900002EBC101488204EB4400114601EBC00066
:104BA000408AB0F5967F0DDA04EB440001EBC000BB
:104BB000007D01280CD104EB440001EBC000408AC9
:104BC000052805DB00BF00BF2046FFF705FB34E0EA
:104BD00004EB44001B4901EBC000007D032807D112
:104BE000042004EB4401174A02EBC101087524E0DC
:104BF00004EB4400134901EBC000007D042807D1F9
:104C0000022004EB44010F4A02EBC101087514E0D5
:104C100004EB44000B4901EBC000007D01280CD1DE
:104C200004EB44020B4603EBC202111D04EB4402E9
:104C300003EBC2029068FFF771FF641C0A2C96DB3D
:104C400070BD00008C4F01202DE9F84305460E464B
:104C50001746984600BF95F83000062808D000BFD8
:104C600031A340F2A9123CA144A0FBF76DFC00BFA8
:104C700000BF00BF00BF5EB1306848B12946306850
:104C800001F003FB20B9307800F0F000E02805D1F6
:104C900000BF00BF6FF00F00BDE8F8832A46414611
:104CA0003046FFF711F90446002C01DA60B2F3E751
:104CB000022004EB44013B4A02EBC101087504EBFE
:104CC0004400114601EBC000856000BF00BF04EB4B
:104CD000440001EBC0003968C160B988018200203E
:104CE00004EB440102EBC101488204EB440011468D
:104CF00051F83000B0B104EB440051F8309000207E
:104D000004EB440142F831004FF400603B4605F1EA
:104D10002A0249460090284600F032F9484608F039
:104D200081FD00BF0020B7E72E2E5C2E2E5C4D6962
:104D300064646C6577617265735C4C5749505C7351
:104D400072635C636F72655C697076345C6574680D
:104D50006172702E630000006E657469662D3E6896
:104D600077616464725F6C656E203D3D20455448F8
:104D70005F4857414444525F4C454E004173736550
:104D80007274696F6E2022257322206661696C65DA
:104D900064206174206C696E6520256420696E2032
:104DA00025730A008C4F012010B5112000F068F91E
:104DB000C0F38034204610BD014600200A6802F08E
:104DC000004252B90A6802F4004232B90A6802F499
:104DD000807212B10A68C2F30D4070471CB51A48C0
:104DE00000788DF80000184840788DF801001648CA
:104DF00080788DF802001448C0788DF803001248BE
:104E000000798DF80400104840798DF805000F48AE
:104E10000F4908600120486081030D488160C91076
:104E2000C16000210182C0F814D0012181610021FC
:104E3000C1614FF400010162FCF78EFD08B900204A
:104E40001CBD0120FCE700007C50012000800240D6
:104E5000B00400202DE9F04104460E464FF00E0844
:104E600060890E2800DC59E0E07B18B996F8340020
:104E7000401CE073656800BF00BFAF89287800F070
:104E80000100B0B12878012809D1687888B9A878DC
:104E90005E280ED1607B40F01000607309E00622AE
:104EA00021492846FBF718FD18B9607B40F008003F
:104EB0006073082F03D0B7F5C16F2AD114E096F8BC
:104EC000310000F0080000B928E04146204608F013
:104ED000C7FE20B100BF00BF00BF00BF1EE03146CB
:104EE000204601F055FB15E096F8310000F008006F
:104EF00000B913E04146204608F0B2FE20B100BFE1
:104F000000BF00BF00BF09E031462046FFF7A0F90F
:104F100000E003E000BF0020BDE8F081204608F07B
:104F200081FC0020F8E700003CAE010810B5A0218C
:104F3000002006F087FC0E490860A021002006F042
:104F400081FC0C49086041F6C451002006F07AFC4F
:104F50000949086041F6C451002006F073FC074976
:104F6000086000BF00BF00BF00BF002010BD0000F0
:104F7000280000202C0000203000002034000020F9
:104F80002DE9F04705460E4617469846DDF8209075
:104F9000484603F028FB82460E21304607F0FCFE0F
:104FA00000B124E07468A4F80CA0D8F800002060D8
:104FB000B8F80400A0803868C4F80600B88860819A
:104FC00000BF95F83000062808D000BF0AA34FF4B0
:104FD000997214A120A0FBF7B7FA00BF00BF00BF71
:104FE00000BF31462846AA699047BDE8F08700BF58
:104FF00000BF6FF00100F8E72E2E5C2E2E5C4D698D
:1050000064646C6577617265735C4C5749505C737E
:1050100072635C6E657469665C65746865726E6502
:10502000742E63006E657469662D3E6877616464F2
:10503000725F6C656E206D7573742062652036201A
:10504000666F722065746865726E65745F6F7574E3
:105050007075742100000000417373657274696F8C
:105060006E2022257322206661696C65642061745C
:10507000206C696E6520256420696E2025730A0006
:1050800038B504466A4621460248FCF707FF0098F7
:1050900038BD0000B004002070B5044600BF44B91C
:1050A00000BF13A340F283121CA120A0FBF74CFA0F
:1050B00000BF00BF042005F0E7FF054625B900BF8B
:1050C00000BF4FF0FF3070BD2562652084F83200CC
:1050D0006E21332001551F4860611F48A06104F113
:1050E0002A002860204602F031FC0020EBE7000097
:1050F0002E2E5C2E2E5C4D6964646C657761726542
:10510000735C4C5749505C617263685C6574686598
:10511000726E657469662E63000000006E657469C6
:105120006620213D204E554C4C00000041737365B4
:105130007274696F6E2022257322206661696C6526
:1051400064206174206C696E6520256420696E207E
:1051500025730A003D430008057B0008054600262C
:105160002C4600BF00BF27E04FF0FF311348006816
:1051700014F0CAFF01281FD113F088FE00BF20469B
:1051800002F042FC064613F0CDFEAEB113F07EFEF7
:10519000214630462269904730B100BF00BF3046FB
:1051A00008F040FB002605E000210448006814F0E8
:1051B000ABFFE4E713F0B6FED6E700007402002070
:1051C0002DE9F84F05460E46DDB1AF69002F12DA22
:1051D0000AF0CAFA8146A869002808DA16B9A8694F
:1051E000401EA86148460AF055FBBDE8F88FAF693C
:1051F00048460AF04FFB384600F0BEF804460CB9AA
:10520000F3E7F2E74FF001080AF0AEFA8146052E07
:1052100024D2DFE806F0030E151C20002089401C74
:1052200000B22081B4F90800012801DD4FF0000828
:1052300020E02089401E00B220814FF0000819E0D4
:10524000608908B14FF000080120608112E0002061
:10525000608180460EE00120A0810BE000BF00BF0E
:1052600019A340F6F61223A126A0FBF76DF900BFA3
:1052700000BF00BF00BFA07B00B3B8F1000F1DD07E
:10528000B4F90800002801DD012000E0002082467A
:10529000608908B1012000E000208346A08908B1A0
:1052A000012000E00020009048460AF0F3FA5A4638
:1052B00051463846009B09F08FFF02E048460AF04D
:1052C000E9FA00BF91E700002E2E5C2E2E5C4D699E
:1052D00064646C6577617265735C4C5749505C73AC
:1052E00072635C6170695C736F636B6574732E636A
:1052F00000000000756E6B6E6F776E206576656ED0
:1053000074000000417373657274696F6E2022250A
:105310007322206661696C6564206174206C696E1B
:105320006520256420696E2025730A0000BF054AA8
:10533000126802F04002002AF9D0C2B2014B1B1DD4
:105340001A607047004800401CB50648052100233C
:105350008022CDE9001004A1064815F059F814F098
:10536000C5F91CBD0400002073746172745F746120
:10537000736B00000DF4000870B50446204611F070
:1053800051FE054665B9002C01DB042C01DB00BF92
:1053900000BF00BF09200349086000BF002070BDA6
:1053A0002846FCE77802002070B505460C462246E8
:1053B0000321284600F060F970BD00002DE9F04F90
:1053C00085B004468A467B4880680390039800783D
:1053D0000007860E142E02DA00BF00BFE0E06089ED
:1053E000042802D200BF00BFDAE060680578606878
:1053F0004078049015B1082D76D100E0CBE0DFF8BD
:10540000B49109F114096B48007D00F0F000E02828
:1054100002D100BF00BFC7E0664A1168506900F0C2
:1054200034FF10B100BF00BFBEE000BF00BF208945
:10543000082802D200BF00BFB2E0204600F0FAFE0A
:1054400038B100BF00BF204608F0ECF905B0BDE858
:10545000F08F06F10E01204607F09EFC002849D08F
:10546000208930441FFA80FB2089584502DD00BFA7
:1054700000BF99E04FF4207259460E2007F00AFD54
:10548000074617B900BF00BF8EE0798906F1080012
:10549000814205D200BF00BF384608F0C3F983E05F
:1054A000324678680399FBF743FA3146384608F0EC
:1054B000D7FB00280DD000BF00BF3FA3B62249A1F3
:1054C00056A0FBF741F800BF00BF384608F0AAF924
:1054D0006AE02146384607F0BDFF30B100BF00BF8B
:1054E000384608F09FF95FE041E0204608F09AF95D
:1054F0003C4610E006F10E01204608F0B1FB50B129
:1055000000BF00BF2CA3C7224EA144A0FBF71CF88C
:1055100000BF00BF48E0D4F804803146204607F0C1
:105520003BFC08B100BF21E06768D9F80000F860D3
:10553000204800693861002088F80000A8F80200BF
:10554000FF2038720020788101200021FF230A46C5
:10555000CDE9010A00914946204601F043F983460E
:10556000BBF1000F01D000BF00BF00BF13E0032D4F
:105570000ED00B2D0CD00C2D0AD0042D08D0052DEB
:1055800006D00D2D04D00E2D02D0112D00D000BF5D
:1055900000BF00BF00BF00BF204608F043F955E739
:1055A000204608F03FF951E7204608F03BF900BFDC
:1055B0004CE70000308500202E2E5C2E2E5C4D69BD
:1055C00064646C6577617265735C4C5749505C73B9
:1055D00072635C636F72655C697076345C69636D7D
:1055E000702E630069636D705F696E7075743A2028
:1055F0006D6F76696E6720722D3E7061796C6F6198
:105600006420746F2069636D7020686561646572E1
:10561000206661696C65640A00000000417373656F
:105620007274696F6E2022257322206661696C6531
:1056300064206174206C696E6520256420696E2089
:1056400025730A0069636D705F696E7075743A2026
:10565000726573746F72696E67206F726967696EC5
:10566000616C20702D3E7061796C6F6164206661A1
:10567000696C65640A0000002DE9FF5F06468946F3
:1056800092464FF01C083089404501DAB6F8088090
:1056900008F1080081B24FF42072222007F0FAFBD3
:1056A00004461CB900BF00BFBDE8FF9F00BF618971
:1056B00008F10800814208D200BF1EA34FF4B77260
:1056C00027A132A0FAF740FF00BF00BFD6F804B010
:1056D00000BF00BF00BF00BF00BF00BF00BF00BFD2
:1056E00000BF00BF656885F8009085F801A0002024
:1056F000A880E8807168626802F108004246FBF702
:1057000017F9DBF80C00039003A801F045FB0746EE
:105710005FB10020688001200021FF2303AACDE9AA
:1057200001070091204601F05DF8204608F07AF864
:1057300000BFB9E72E2E5C2E2E5C4D6964646C654B
:1057400077617265735C4C5749505C7372635C633C
:105750006F72655C697076345C69636D702E63008E
:10576000636865636B207468617420666972737422
:1057700020706275662063616E20686F6C642069BA
:10578000636D70206D657373616765004173736548
:105790007274696F6E2022257322206661696C65C0
:1057A00064206174206C696E6520256420696E2018
:1057B00025730A0070B505460C4622460B21284683
:1057C000FFF75AFF70BD70B504460D46607A022897
:1057D00007D0607A01280AD1608910B16089A84297
:1057E00005DD2946204600F0CFFC0120607270BD27
:1057F00000BF00BF0348044908600448044908602A
:1058000070470000E00000015C020020E0000002A0
:10581000600200202DE9F8430746894690467889C2
:10582000082806DA384607F0FDFF00BF00BFBDE8D4
:10583000F88300BF00BF00BF00BF00BF00BF00BFB4
:1058400000BF00BF00BF7C687989204600F0E8FCFB
:1058500028B1384607F0E6FF00BF00BFE7E7414642
:10586000484600F0FDFA05462DB9384607F0DAFF44
:1058700000BF00BFDBE72078112802D016284BD1EB
:105880003EE02A49D8F800000968884218D1201D56
:1058900008B16068A0B900BF00BF607818B900BF48
:1058A00000BF0A206070D9F8246006B1366804E0B1
:1058B00061783046FFF787FF3668002EF8D11EE08A
:1058C000201DE0B16068D0B100BF00BF00BF00BFC5
:1058D0001649D8F800000968884209D100BF00BF06
:1058E000606800906946484600F0BAFA054601E053
:1058F00000BF00BF1DB161782846FFF764FF0EE0CE
:1059000000BF00BF687A012805D10020688102200D
:1059100068720020287202E000BF00BF00BF00BF15
:10592000384607F07FFF00BF81E700005C020020DF
:10593000F0B587B005460E4617461C4640F2944027
:10594000ADF818000020ADF81A00042006A90222C4
:10595000CDE90124CDE90310002001233A46314668
:105960000090284600F058FF07B0F0BD2DE9F04147
:1059700005460E466FF0050700BF307800F0F000D6
:10598000E02807D000BF19A0FAF7DEFD00BF3846B7
:10599000BDE8F08100BF00BF224930680968884235
:1059A00007D100BF20A0FAF7CFFD00BF6FF00500C0
:1059B000EEE700BF2948046814E094F8310000F0D5
:1059C000200070B12DB1286818B16068296888423C
:1059D00007D13146204600F043F807460FB138465C
:1059E000D6E72468002CE8D13846D1E769676D70A6
:1059F0005F6A6F696E67726F75703A206174746563
:105A00006D707420746F206A6F696E206E6F6E2DDA
:105A10006D756C746963617374206164647265731D
:105A2000730000005C02002069676D705F6A6F6937
:105A30006E67726F75703A20617474656D70742052
:105A4000746F206A6F696E20616C6C737973746512
:105A50006D7320616464726573730000F00100204F
:105A600070B505460E4600BF307800F0F000E02823
:105A700007D000BF2CA0FAF767FD00BF6FF005004C
:105A800070BD00BF00BF374930680968884207D140
:105A900000BF35A0FAF758FD00BF6FF00500EFE733
:105AA00000BF00BF95F8310000F0200038B900BFFA
:105AB0003CA0FAF749FD00BF6FF00500E0E700BF2A
:105AC0003146284600F0DCF9044644B3607A08B158
:105AD00000BF1FE000BF00BF00BF00BF00BF00BF8E
